:020000040800F2
:1000000000C00020F9100008844641EA000313F004
:10001000030349D1403A23D30B6803604B68436024
:100020008B688360CB68C3600B6903614B69436174
:100030008B698361CB69C3610B6A03624B6A43625C
:100040008B6A8362CB6AC3620B6B03634B6B436344
:100050008B6B8363CB6BC36340304031403ADBD260
:1000600030320BD30B6803604B6843608B6883604E
:10007000CB68C36010301031103AF3D20C3205D384
:1000800051F8043B40F8043B043AF9D2043208D05A
:10009000D2071CBF11F8013B00F8013B01D30B88CC
:1000A00003806046704700BF082A13D38B07B1D086
:1000B00010F00303AED0C3F10403D21ADB071CBF58
:1000C00011F8013B00F8013BA4D331F8023B20F8C2
:1000D000023B9FE7043AD9D3013A11F8013B00F8FB
:1000E000013BF9D20B7803704B7843708B788370A7
:1000F0006046704780EA010C1CF0030F37D110F006
:10010000030C20F0030021F0030150F8042B08BF7A
:1001100051F8043B0ED08CF0030C6FF07F434FEA94
:10012000CC0C23FA0CFC51F8043B42EA0C0243EAE3
:100130000C0300BFA2F1013C9A4201BF2CEA020C61
:100140001CF0803F50F8042B51F8043BF2D04FEAEA
:1001500002604FEA1222012828BFB0EB036F08BFEC
:100160001B0AF4D003F0FF03000EC01A704710F012
:10017000030F0AD010F8012B11F8013B012A28BF08
:100180009A42F4D0A2EB030070474DF8045D50F89A
:10019000042B01F0030521F0030151F8043B022D6B
:1001A00026D04DD822F07F45B5EB132FA2F1013CAC
:1001B0002CEA020C0DD11CF0803C08BF51F8043B26
:1001C0000AD185EA0205B5EB036F0CD150F8042B78
:1001D000E8E74FEA13235BE03CF07F4C54D10B7807
:1001E0004FEA126554E04FEA126503F0FF034FE057
:1001F0004FEA0245A2F1013C4FEA15452CEA020CF8
:10020000B5EB134F18D11CF0803C08BF51F8043BEC
:1002100007D185EA0205B5EB034F09D150F8042B4D
:10022000E6E75FEA0C4C2FD10B884FEA12452FE02E
:100230004FEA03434FEA12454FEA134328E000BF59
:1002400002F0FF05B5EB136FA2F1013C2CEA020CA2
:100250000DD11CF0803C08BF51F8043B0AD185EA5F
:100260000205B5EB032F0AD150F8042BE8E74FEA5B
:1002700013630DE012F0FF0F06D051F8043B4FEA74
:10028000122523F07F4303E04FF0000020BC7047AD
:1002900005F0FF0203F0FF00012828BF904204BFD1
:1002A0002D0A1B0AF4D0A2EB000020BC704700BF4F
:1002B0004FF0FF0C1CEAD0521EBF1CEAD15392EA49
:1002C0000C0F93EA0C0F6FD01A4480EA010C400225
:1002D00018BF5FEA41211ED04FF0006343EA50107F
:1002E00043EA5111A0FB01310CF00040B1F5000FC1
:1002F0003EBF490041EAD3715B0040EA010062F170
:100300007F02FD2A1DD8B3F1004F40EBC25008BF59
:1003100020F00100704790F0000F0CF0004C08BF77
:1003200049024CEA502040EA51207F3AC2BFD2F144
:10033000FF0340EAC250704740F400004FF0000352
:10034000013A5DDC12F1190FDCBF00F0004070478C
:10035000C2F10002410021FA02F1C2F1200200FACA
:1003600002FC5FEA310040F1000053EA4C0308BF91
:1003700020EADC70704792F0000F00F0004C02BFE2
:10038000400010F4000F013AF9D040EA0C0093F05D
:10039000000F01F0004C02BF490011F4000F013BB7
:1003A000F9D041EA0C018FE70CEAD15392EA0C0F25
:1003B00018BF93EA0C0F0AD030F0004C18BF31F090
:1003C000004CD8D180EA010000F00040704790F066
:1003D000000F17BF90F0004F084691F0000F91F00A
:1003E000004F14D092EA0C0F01D142020FD193EAD0
:1003F0000C0F03D14B0218BF084608D180EA010058
:1004000000F0004040F0FE4040F40000704740F033
:10041000FE4040F44000704781F0004102E000BF20
:1004200083F0004330B54FEA41044FEA430594EAB4
:10043000050F08BF90EA020F1FBF54EA000C55EAEF
:10044000020C7FEA645C7FEA655C00F0E2804FEAC0
:100450005454D4EB5555B8BF6D420CDD2C4480EAA2
:10046000020281EA030382EA000083EA010180EAD2
:10047000020281EA0303362D88BF30BD11F0004F20
:100480004FEA01314FF4801C4CEA113102D0404256
:1004900061EB410113F0004F4FEA03334CEA133391
:1004A00002D0524263EB430394EA050F00F0A780A9
:1004B000A4F10104D5F1200E0DDB02FA0EFC22FAA4
:1004C00005F2801841F1000103FA0EF2801843FA98
:1004D00005F359410EE0A5F120050EF1200E012A89
:1004E00003FA0EFC28BF4CF0020C43FA05F3C018C7
:1004F00051EBE37101F0004507D54FF0000EDCF140
:10050000000C7EEB00006EEB0101B1F5801F1BD3E8
:10051000B1F5001F0CD349085FEA30004FEA3C0CEC
:1005200004F101044FEA445212F5800F80F09A80E2
:10053000BCF1004F08BF5FEA500C50F1000041EBE6
:10054000045141EA050130BD5FEA4C0C404141EBEA
:100550000101013C28BFB1F5801FE9D291F0000FE5
:1005600004BF01460020B1FA81F308BF2033A3F194
:100570000B03B3F120020CDA0C3208DD02F1140C8B
:10058000C2F10C0201FA0CF021FA02F10CE002F1C6
:100590001402D8BFC2F1200C01FA02F120FA0CFCBF
:1005A000DCBF41EA0C019040E41AA2BF01EB045108
:1005B000294330BD6FEA04041F3C1CDA0C340EDC06
:1005C00004F11404C4F1200220FA04F001FA02F349
:1005D00040EA030021FA04F345EA030130BDC4F107
:1005E0000C04C4F1200220FA02F001FA04F340EAFC
:1005F0000300294630BD21FA04F0294630BD94F0AD
:10060000000F83F4801306BF81F480110134013D93
:100610004EE77FEA645C18BF7FEA655C29D094EA04
:10062000050F08BF90EA020F05D054EA000C04BF82
:100630001946104630BD91EA030F1EBF002100206D
:1006400030BD5FEA545C05D14000494128BF41F00C
:10065000004130BD14F580043CBF01F5801130BD70
:1006600001F0004545F0FE4141F470014FF00000FB
:1006700030BD7FEA645C1ABF194610467FEA655CAC
:100680001CBF0B46024650EA013406BF52EA03354E
:1006900091EA030F41F4002130BD00BF90F0000F3C
:1006A00004BF0021704730B54FF4806404F1320478
:1006B0004FF000054FF0000150E700BF90F0000F31
:1006C00004BF0021704730B54FF4806404F1320458
:1006D00010F0004548BF40424FF000013EE700BF28
:1006E00042004FEAE2014FEA31014FEA02701FBFB8
:1006F00012F07F4393F07F4F81F06051704732F0EA
:100700007F4208BF704793F07F4F04BF41F4002140
:10071000704730B54FF4607401F0004521F000419E
:100720001CE700BF50EA010208BF704730B54FF028
:1007300000050AE050EA010208BF704730B511F029
:10074000004502D5404261EB41014FF4806404F161
:1007500032045FEA915C3FF4D8AE4FF003025FEAE7
:10076000DC0C18BF03325FEADC0C18BF033202EB6B
:10077000DC02C2F1200300FA03FC20FA02F001FAC5
:1007800003FE40EA0E0021FA02F11444BDE600BF68
:1007900070B54FF0FF0C4CF4E06C1CEA11541DBF17
:1007A0001CEA135594EA0C0F95EA0C0F00F0DEF8E2
:1007B0002C4481EA030621EA4C5123EA4C5350EAC7
:1007C000013518BF52EA033541F4801143F4801318
:1007D00038D0A0FB02CE4FF00005E1FB02E506F0A9
:1007E0000042E0FB03E54FF00006E1FB03569CF0FE
:1007F000000F18BF4EF0010EA4F1FF04B6F5007F04
:1008000064F5407404D25FEA4E0E6D4146EB060675
:1008100042EAC62141EA55514FEAC52040EA5E50FE
:100820004FEACE2EB4F1FD0C88BFBCF5E06F1ED8A8
:10083000BEF1004F08BF5FEA500E50F1000041EBDF
:10084000045170BD06F0004646EA010140EA02008C
:1008500081EA0301B4EB5C04C2BFD4EB0C0541EAAE
:10086000045170BD41F480114FF0000E013C00F3C3
:10087000AB8014F1360FDEBF002001F0004170BDE7
:10088000C4F10004203C35DA0C341BDC04F1140400
:10089000C4F1200500FA05F320FA04F001FA05F28C
:1008A00040EA020001F0004221F0004110EBD37059
:1008B00021FA04F642EB06015EEA430E08BF20EA85
:1008C000D37070BDC4F10C04C4F1200500FA04F328
:1008D00020FA05F001FA04F240EA020001F00041BA
:1008E00010EBD37041F100015EEA430E08BF20EA2D
:1008F000D37070BDC4F1200500FA05F24EEA020E75
:1009000020FA04F301FA05F243EA020321FA04F0A3
:1009100001F0004121FA04F220EA020000EBD3705A
:100920005EEA430E08BF20EAD37070BD94F0000F5A
:100930000FD101F00046400041EB010111F4801F8E
:1009400008BF013CF7D041EA060195F0000F18BF3F
:10095000704703F00046520043EB030313F4801F7B
:1009600008BF013DF7D043EA0603704794EA0C0F35
:100970000CEA135518BF95EA0C0F0CD050EA41064B
:1009800018BF52EA4306D1D181EA030101F00041C8
:100990004FF0000070BD50EA410606BF10461946F0
:1009A00052EA430619D094EA0C0F02D150EA0136FC
:1009B00013D195EA0C0F05D152EA03361CBF10463D
:1009C00019460AD181EA030101F0004141F0FE41DC
:1009D00041F470014FF0000070BD41F0FE4141F460
:1009E000780170BD70B54FF0FF0C4CF4E06C1CEA60
:1009F00011541DBF1CEA135594EA0C0F95EA0C0F15
:100A000000F0A7F8A4EB050481EA030E52EA0335CF
:100A10004FEA013100F088804FEA03334FF08055F0
:100A200045EA131343EA12634FEA022245EA11151D
:100A300045EA10654FEA00260EF000419D4208BFCE
:100A4000964244F1FD0404F5407402D25B084FEA7B
:100A50003202B61A65EB03055B084FEA32024FF427
:100A600080104FF4002CB6EB020E75EB030E22BF84
:100A7000B61A754640EA0C005B084FEA3202B6EB44
:100A8000020E75EB030E22BFB61A754640EA5C00F3
:100A90005B084FEA3202B6EB020E75EB030E22BF83
:100AA000B61A754640EA9C005B084FEA3202B6EB84
:100AB000020E75EB030E22BFB61A754640EADC0043
:100AC00055EA060E18D04FEA051545EA16754FEAA5
:100AD00006164FEAC30343EA52734FEAC2025FEAC3
:100AE0001C1CC0D111F4801F0BD141EA00014FF052
:100AF00000004FF0004CB6E711F4801F04BF014323
:100B00000020B4F1FD0C88BFBCF5E06F3FF6AFAE3E
:100B1000B5EB030C04BFB6EB020C5FEA500C50F1CE
:100B2000000041EB045170BD0EF0004E4EEA113151
:100B300014EB5C04C2BFD4EB0C0541EA045170BD58
:100B400041F480114FF0000E013C90E645EA060E9C
:100B50008DE60CEA135594EA0C0F08BF95EA0C0FCA
:100B60003FF43BAF94EA0C0F0AD150EA01347FF412
:100B700034AF95EA0C0F7FF425AF104619462CE7E9
:100B800095EA0C0F06D152EA03353FF4FDAE10464C
:100B9000194622E750EA410618BF52EA43067FF49D
:100BA000C5AE50EA41047FF40DAF52EA43057FF42D
:100BB000EBAE12E74FF0FF3C06E000BF4FF0010C38
:100BC00002E000BF4FF0010C4DF804CD4FEA410C9C
:100BD0007FEA6C5C4FEA430C18BF7FEA6C5C1BD069
:100BE00001B050EA410C0CBF52EA430C91EA030FEA
:100BF00002BF90EA020F0020704710F1000F91EA47
:100C0000030F58BF994208BF90422CBFD8176FEA14
:100C1000E37040F0010070474FEA410C7FEA6C5CE2
:100C200002D150EA013C07D14FEA430C7FEA6C5CE9
:100C3000D6D152EA033CD3D05DF8040B704700BF15
:100C40008446104662468C461946634600E000BF63
:100C500001B5FFF7B7FF002848BF10F1000F01BD35
:100C60004DF808EDFFF7F4FF0CBF012000205DF800
:100C700008FB00BF4DF808EDFFF7EAFF34BF012085
:100C800000205DF808FB00BF4DF808EDFFF7E0FF1E
:100C900094BF012000205DF808FB00BF4DF808ED6F
:100CA000FFF7CEFF94BF012000205DF808FB00BFD6
:100CB0004DF808EDFFF7C4FF34BF012000205DF8B8
:100CC00008FB00BF4A0011D212F5001211D20DD557
:100CD0006FF47873B3EB62520ED44FEAC12343F042
:100CE000004343EA505323FA02F070474FF00000EC
:100CF000704750EA013002D14FF0FF3070474FF09B
:100D0000000070474FEA4102B2F1E04324BFB3F55F
:100D1000001CDCF1FE5C0DD901F0004C4FEAC00272
:100D20004CEA5070B2F1004F40EB830008BF20F056
:100D30000100704711F0804F21D113F13872BCBF10
:100D400001F00040704741F480114FEA5252C2F165
:100D50001802C2F1200C10FA0CF320FA02F018BFAE
:100D600040F001004FEAC1234FEAD32303FA0CFC01
:100D700040EA0C0023FA02F34FEA4303CCE77FEA90
:100D8000625307D150EA01331EBF4FF0FE4040F4DA
:100D90004000704701F0004040F0FE4040F4000089
:100DA000704700BF80F0004002E000BF81F00041CA
:100DB00042001FBF5FEA410392EA030F7FEA226C01
:100DC0007FEA236C6AD04FEA1262D2EB1363C1BF91
:100DD000D218414048404140B8BF5B42192B88BF00
:100DE000704710F0004F40F4000020F07F4018BF23
:100DF000404211F0004F41F4000121F07F4118BF43
:100E0000494292EA030F3FD0A2F1010241FA03FCEA
:100E100010EB0C00C3F1200301FA03F100F00043D2
:100E200002D5494260EB4000B0F5000F13D3B0F19A
:100E3000807F06D340084FEA310102F10102FE2A09
:100E400051D2B1F1004F40EBC25008BF20F0010079
:100E500040EA03007047490040EB0000013A28BF18
:100E6000B0F5000FEDD2B0FA80FCACF1080CB2EB9B
:100E70000C0200FA0CF0AABF00EBC2505242184319
:100E8000BCBFD0401843704792F0000F81F40001BE
:100E900006BF80F400000132013BB5E74FEA410391
:100EA0007FEA226C18BF7FEA236C21D092EA030FFD
:100EB00004D092F0000F08BF0846704790EA010F77
:100EC0001CBF0020704712F07F4F04D1400028BFA4
:100ED00040F00040704712F100723CBF00F5000086
:100EE000704700F0004343F0FE4040F400007047BC
:100EF0007FEA226216BF08467FEA23630146420268
:100F000006BF5FEA412390EA010F40F4800070477A
:100F10004FF0000304E000BF10F0004348BF404220
:100F20005FEA000C08BF704743F0964301464FF05C
:100F300000001CE050EA010208BF70474FF00003B8
:100F40000AE000BF50EA010208BF704711F00043F9
:100F500002D5404261EB41015FEA010C02BF8446C9
:100F60000146002043F0B64308BFA3F18053A3F528
:100F70000003BCFA8CF2083AA3EBC25310DB01FA6F
:100F800002FC634400FA02FCC2F12002BCF1004FF3
:100F900020FA02F243EB020008BF20F00100704784
:100FA00002F1200201FA02FCC2F1200250EA4C00D8
:100FB00021FA02F243EB020008BF20EADC7070471E
:100FC0004FF0FF3C06E000BF4FF0010C02E000BF15
:100FD0004FF0010C4DF804CD4FEA40024FEA4103B7
:100FE0007FEA226C18BF7FEA236C11D001B052EA6D
:100FF000530C18BF90EA010F58BFB2EB030088BF33
:10100000C81738BF6FEAE17018BF40F001007047A1
:101010007FEA226C02D15FEA402C05D17FEA236C83
:10102000E4D15FEA412CE1D05DF8040B704700BFCA
:10103000844608466146FFE70FB5FFF7C9FF002861
:1010400048BF10F1000F0FBD4DF808EDFFF7F4FF9A
:101050000CBF012000205DF808FB00BF4DF808ED33
:10106000FFF7EAFF34BF012000205DF808FB00BF56
:101070004DF808EDFFF7E0FF94BF012000205DF878
:1010800008FB00BF4DF808EDFFF7D2FF94BF012029
:1010900000205DF808FB00BF4DF808EDFFF7C8FF22
:1010A00034BF012000205DF808FB00BF4FEA40027A
:1010B000B2F1FE4F0FD34FF09E03B3EB12620DD986
:1010C0004FEA002343F0004310F0004F23FA02F0F0
:1010D00018BF404270474FF00000704712F1610F97
:1010E00001D1420205D110F0004008BF6FF000406E
:1010F00070474FF000007047684620F007018D46AA
:1011000081B583B000AF00237B6002E07B680133D0
:101110007B607B68034A9342F8D9034B9847034BA3
:101120009847FEE71FA1070031110008FD6D000878
:1011300080B483B000AF134B7B60134B3B607A6885
:101140003B689A420CD007E07A68131D7B603B68CD
:10115000191D396012681A603B680C4A9342F3D338
:101160000B4B3B6004E03B681A1D3A6000221A609A
:101170003B68084A9342F6D300BF00BF0C37BD4618
:1011800080BC70473059010800000020580600203C
:1011900058060020E496002080B400AFFEE700006F
:1011A00080B500AF234B98474FF48030224B9847CF
:1011B0000020224B9847224B984703461A46214B62
:1011C0001A70204B1B78012B31D110201E4B9847F1
:1011D00002201E4B98471E4B1B68012B03D1002099
:1011E0001C4B984702E080201A4B98474FF48060D0
:1011F000194B98474FF48060184B98474FF4E01113
:101200004FF44030164B98470120164B984700BFCB
:101210003920154B98470346002BF9D00220134B79
:10122000984700BF124B98470346082BFAD100BFDE
:1012300080BD00BF69300008C5300008D132000809
:101240002131000858060020552B00081D2B0008EE
:101250009471002029320008993200086132000898
:1012600079310008B5310008AD350008D5310008E6
:101270000D32000880B582B000AF434B19464FF0E5
:101280000050424B98474FF44070414B98471F2302
:101290003B71FD237B710023BB710123FB713B1D5F
:1012A00018463C4B984720233B71FD237B7101235B
:1012B000BB710123FB713B1D1846364B9847272312
:1012C0003B7101237B710023BB710123FB713B1D2B
:1012D0001846304B984734233B7105237B7100231C
:1012E000BB710123FB713B1D18462A4B98473223E3
:1012F0003B7102237B710023BB710123FB713B1DFA
:101300001846244B98470C233B7107237B7100231D
:10131000BB710123FB713B1D18461E4B98470D23E3
:101320003B7104237B710023BB710123FB713B1DC7
:101330001846184B98473B233B7106237B710023CB
:10134000BB710123FB713B1D1846124B98473A2392
:101350003B7103237B710023BB710123FB713B1D98
:1013600018460C4B98471D233B7101237B710023CA
:10137000BB710123FB713B1D1846064B984700BF0C
:101380000837BD4680BD00BF00000000C141000815
:10139000D9400008FD40000880B500AF8021044816
:1013A000044B9847044B9847044B984700BF80BDB7
:1013B000000801406D2F0008A111000875120008F7
:1013C00090B58BB002AFF860B9603B601346FB800C
:1013D000FB88B96B1846454B9847B861BB69002B31
:1013E00066D0BB691A6BFB8803F18043013B9B000D
:1013F00013447B617B6923F007037B61FB880093C7
:10140000FB6B3A6BB968B869394CA0473A68F96820
:101410007869384B98470246BB691A60364B984743
:10142000364B1B680133354A1360344B1B68012B64
:1014300005D1334ABB691360324B98470CE0324BFD
:101440001B68002B08D12E4B1B68DB6A3A6B9A4253
:1014500002D32B4ABB691360BB69DA6A2B4B1B684A
:101460009A4203D9BB69DB6A284A1360284B1B6880
:101470000133274A1360BB69DA6A264B1B689A421C
:1014800003D9BB69DB6A234A1360BB69DA6A134676
:101490009B0013449B00204A1A44BB69043319463D
:1014A00010461E4B98470123FB611D4B984702E0F5
:1014B0004FF0FF33FB61FB69012B11D17B6B002BDC
:1014C00002D07B6BBA691A600F4B1B68002B07D0E8
:1014D0000B4B1B68DB6A3A6B9A4201D9114B984758
:1014E000FB6918462437BD4690BD00BFE51C0008C7
:1014F000511B000817250008F9250008980700204F
:101500005C060020C51B0008A8070020A0070020DB
:10151000BC070020A4070020600600200B24000860
:101520001D260008E125000880B584B000AF786072
:101530000023FB607B68002B2BD01A4B98471A4B7B
:101540001B687A681344BB60184B1B680433184649
:10155000174B9847154B1B68BA685A60124B1B68AB
:10156000BA689A4209D2134B1A68104B1B680433AD
:1015700019461046104B984708E0104B1A680B4B61
:101580001B680433194610460B4B98470C4B984781
:10159000F860FB68002B01D10A4B984700BF103759
:1015A000BD4680BD2D1600089C0700205C0600206B
:1015B000C9240008540700205924000850070020BF
:1015C00049160008E125000890B587B004AF002354
:1015D000039300230293002301930023009300232D
:1015E00080220C490C480D4CA04778607B68012B89
:1015F0000BD14FF0BF0080F31188094B01221A6014
:10160000084B00221A60084B984700BF0C37BD46B4
:1016100090BD00BF40490108211B0008C11300080C
:10162000A80700209C070020A125000880B400AF77
:10163000044B1B680133034A136000BFBD4680BCE6
:10164000704700BFAC07002090B583B000AF002307
:101650007B60354B9847354B1B68013B334A136021
:10166000324B1B68002B57D1314B1B68002B53D0DA
:1016700000233B6024E004F1180318462D4B9847E3
:10168000231D18462B4B9847E26A2B4B1B689A4246
:1016900002D9E36A284A1360E26A13469B001344A6
:1016A0009B00264A1344221D11461846244B984796
:1016B000E26A244B1B68DB6A9A4201D301233B6038
:1016C000214B1B68002B03D01F4BDB68DB6800E05D
:1016D00000231C46002CCED11C4B1B68002B0DD0C8
:1016E00006E01B4B9847194B1B68013B174A1360D8
:1016F000164B1B68002BF4D101233B603B68012B88
:1017000003D0144B1B68012B06D101237B60114BC6
:1017100000221A60104B9847104B98477B68184678
:101720000C37BD4690BD00BFF9250008AC0700206E
:1017300098070020C9240008A407002060060020A4
:101740000B2400085C06002058070020B00700208A
:1017500061170008B4070020E12500081D260008D5
:1017600090B583B000AF324B1B68002B4CD1314B8E
:101770001B6801332F4A13602E4B1B68002B34D19A
:101780002D4B1B687B602D4B1B682B4A13602B4A2B
:101790007B6813602A4B1B680133294A136024E0DD
:1017A0006268244B1B689A4236D8231D1846254B85
:1017B0009847A36A002B04D004F118031846214B64
:1017C0009847E26A204B1B689A4202D9E36A1E4A94
:1017D0001360E26A13469B0013449B001B4A1344A8
:1017E000221D114618461A4B9847134B1B681B685D
:1017F000002B04D0104B1B68DB68DB6800E0002383
:101800001C46002CCCD108E0124B1B680133114A56
:101810001360114B984700E000BF0E4B1B68002B74
:1018200001D10D4B984700BF0C37BD4690BD00BF9E
:10183000AC0700209C070020500700205407002020
:10184000B8070020C9240008A40700206006002073
:101850000B240008B0070020A96F000880B483B0F3
:1018600000AF1D4B1B68002B08D01C4B01221A60D7
:101870002DE01B4B1B68013B194A1360184B1A687B
:10188000184913469B0013449B000B441B68002B14
:10189000EFD0134B1A6813469B0013449B00114A68
:1018A00013447B607B685B685A687B685A607B681E
:1018B0005A687B6808339A4204D17B685B685A682F
:1018C0007B685A607B685B68DB68074A13600C378B
:1018D000BD4680BC704700BFAC070020B4070020A5
:1018E000A4070020600600205C06002080B584B0BC
:1018F00000AF786039601F4B1B6818331946786851
:101900001D4B98471B4B1B68043318461B4B9847CD
:101910003B68B3F1FF3F07D1164B1B6804331946F0
:101920001748184B984720E0174B1B683A68134438
:10193000FB60104B1B68FA685A60134B1B68FA680F
:101940009A4209D2114B1A680A4B1B680433194694
:101950001046094B984708E00D4B1A68054B1B6869
:10196000043319461046044B984700BF1037BD4654
:1019700080BD00BF5C06002059240008C92400086F
:10198000840700200B2400089C0700205407002037
:101990005007002080B584B000AF78607B681B687A
:1019A000002B03D07B68DB68DB6800E00023BB60B2
:1019B000BB68183318461D4B98471D4B1B68002BFE
:1019C0001DD1BB6804331846184B9847BB68DA6AC8
:1019D000184B1B689A4203D9BB68DB6A154A13602F
:1019E000BB68DA6A13469B0013449B00124A1A44F0
:1019F000BB68043319461046104B984705E0BB6896
:101A0000183319460E480D4B9847BB68DA6A0D4BE0
:101A10001B68DB6A9A4202D30123FB6001E00023CA
:101A2000FB60FB6818461037BD4680BDC92400081E
:101A3000AC070020A4070020600600200B2400084B
:101A4000580700205C06002080B483B000AF7860A7
:101A5000064B1A687B681A60054B1A687B685A60E7
:101A600000BF0C37BD4680BC704700BFB8070020E0
:101A70009C07002080B584B000AF786039601D4BB2
:101A800098473B681B68B3F1FF3F02D10023FB601E
:101A900029E07B681A68184B1B689A4208D07B685B
:101AA0005A68164B1B689A4202D80123FB601AE061
:101AB000124B1A687B685B68D21A3B681B689A42B3
:101AC0000FD20E4B1A687B685B68D31A3A681268AB
:101AD000D21A3B681A607868094B98470023FB606C
:101AE00001E00123FB60074B9847FB68184610375D
:101AF000BD4680BDF9250008B80700209C070020DE
:101B0000491A00081D26000880B400AF034B0122CB
:101B10001A6000BFBD4680BC704700BFB4070020FC
:101B200080B582B000AF7860054B9847054B1B68C5
:101B3000012B01D9044B9847044B9847F4E700BFA9
:101B4000491C000860060020E12500089D6F000880
:101B500080B584B000AFF860B9607A603B60FB6824
:101B600034331022B9681846144B9847FB6800229A
:101B700083F843207B68092B01D909237B60FB682C
:101B80007A68DA62FB687A685A64FB68043318463C
:101B90000B4B9847FB6818331846094B9847FB686E
:101BA000FA681A617B68C3F10A02FB689A61FB68F4
:101BB000FA685A6200BF1037BD4680BD8D470108E4
:101BC000F323000880B582B000AF00237B600CE0F7
:101BD0007A6813469B0013449B00124A134418462C
:101BE000114B98477B6801337B607B68092BEFD9E9
:101BF0000E480D4B98470E480B4B98470D480A4B23
:101C000098470D48084B98470C48074B98470C4B92
:101C1000064A1A600B4B064A1A6000BF0837BD46D9
:101C200080BD00BF60060020B52300082807002003
:101C30003C070020580700206C0700208407002084
:101C4000500700205407002080B582B000AF1B4B26
:101C50001B68002B2ED01A4B98471A4B1B68002B81
:101C60000CBF01230023DBB27B60174B98477B68D6
:101C7000002B1FD1154B9847124B1B68002B03D02C
:101C8000134B5B68DB6800E000233B603B68043378
:101C90001846104B9847104B1B68013B0E4A1360C7
:101CA000064B1B68013B054A13600C4B984738688C
:101CB0000B4B984700BF0837BD4680BD800700200A
:101CC0002D1600086C07002049160008F9250008A9
:101CD00074070020C9240008980700201D2600086A
:101CE000491D000880B584B000AF03463960FB8011
:101CF0004820124B9847F860FB68002B19D0FB88EE
:101D00009B0018460D4B98470246FB681A63FB6818
:101D10001B6B002B05D1F868094B98470023FB602B
:101D200007E0FB68186BFB889B001A46A521054B52
:101D30009847FB6818461037BD4680BDE526000869
:101D4000392800089145010880B582B000AF78605D
:101D50007B681B6B1846044B98477868024B984782
:101D600000BF0837BD4680BD3928000880B483B065
:101D700000AF044B1B687B607B6818460C37BD4680
:101D800080BC70475C06002080B584B000AF7860EE
:101D90007B68FB60FB68DA6A214B1B68DB6A9A424E
:101DA0003AD21F4B1B68DB6AC3F10A02FB689A61D7
:101DB000FB685969FB68DA6A13469B0013449B0071
:101DC000184A1344994222D1FB6804331846164B33
:101DD0009847134B1B68DA6AFB68DA62FB68DA6AB9
:101DE000124B1B689A4203D9FB68DB6A0F4A1360E7
:101DF000FB68DA6A13469B0013449B00094A1A44A5
:101E0000FB68043319461046094B984704E0044B1D
:101E10001B68DA6AFB68DA6200BF1037BD4680BD16
:101E20005C06002060060020C9240008A4070020EA
:101E30000B24000880B584B000AF78607B68FB603D
:101E40007B68002B2CD0FB68DA6AFB685B6C9A42DB
:101E500026D0FB6804331846134B9847FB685A6C2E
:101E6000FB68DA62FB68DB6AC3F10A02FB689A610D
:101E7000FB68DA6A0D4B1B689A4203D9FB68DB6A80
:101E80000A4A1360FB68DA6A13469B0013449B00FE
:101E9000074A1A44FB68043319461046054B984715
:101EA00000BF1037BD4680BDC9240008A40700202C
:101EB000600600200B24000880B588B000AFF860F1
:101EC000B9607A603B600023FB613D4B9847FB683B
:101ED0009A6BFB68DB6B9A4216D23A68B968F8686D
:101EE000384B9847FB685B6A002B09D0FB682433AA
:101EF0001846354B98470346012B01D1334B984781
:101F0000334B9847012356E07B68002B03D1304BBD
:101F1000984700234FE0FB69002B06D107F114031B
:101F200018462C4B98470123FB61294B98472A4BB5
:101F30009847234B9847FB685B6CB3F1FF3F02D196
:101F4000FB6800225A64FB689B6CB3F1FF3F02D12F
:101F5000FB6800229A641E4B98473A1D07F1140350
:101F6000114618461D4B98470346002B1DD1F868B3
:101F70001B4B98470346002B11D0FB6810337A683F
:101F800011461846174B9847F868174B9847174B58
:101F900098470346002B98D10C4B984795E7F86873
:101FA000114B9847114B98478FE7F8680E4B9847AD
:101FB0000E4B9847002318462037BD4680BD00BF12
:101FC000F92500089121000895190008E12500086D
:101FD0001D260008491A00082D160008751A000869
:101FE0007D230008ED180008A1220008491600080A
:101FF00080B588B000AFF860B9607A603B600023BC
:10200000FB61554B9847FB689B6B002B3BD0FB68F3
:10201000DB68BB61B968F868504B98473B68002B98
:102020001CD1FB689B6B5A1EFB689A63FB681B689C
:10203000002B04D14A4B98470246FB685A60FB6864
:102040001B69002B1BD0FB6810331846454B984783
:102050000346012B13D1444B984710E0FB68BA6943
:10206000DA60FB685B6A002B09D0FB6824331846F2
:102070003C4B98470346002B01D03B4B98473B4BCA
:102080009847012364E07B68002B03D1374B9847C6
:1020900000235DE0FB69002B06D107F11003184611
:1020A000334B98470123FB61304B9847314B98479E
:1020B000294B9847FB685B6CB3F1FF3F02D1FB688B
:1020C00000225A64FB689B6CB3F1FF3F02D1FB68AE
:1020D00000229A64254B98473A1D07F110031146D8
:1020E0001846254B98470346002B2BD1F868234B05
:1020F00098470346002B1FD0FB681B68002B08D1B4
:10210000154B9847FB685B6818461D4B9847174B63
:102110009847FB6824337A6811461846194B98474C
:10212000F868194B9847194B98470346002B7FF4E2
:1021300068AF0D4B984764E7F868134B9847134B0B
:1021400098475EE7F868104B9847104B9847002374
:1021500018462037BD4680BDF925000851220008E9
:102160006D1D000895190008E12500081D260008CE
:10217000491A00082D160008751A0008492300089E
:10218000891D0008ED180008A12200084916000862
:1021900080B584B000AFF860B9607A60FB681B6CF2
:1021A000002B0CD1FB681B68002B43D1FB685B68DC
:1021B0001846254B9847FB6800225A603AE07B6836
:1021C000002B19D1FB689868FB681B6C1A46B9682C
:1021D0001E4B9847FB689A68FB681B6C1A44FB68A7
:1021E0009A60FB689A68FB685B689A4222D3FB6836
:1021F0001A68FB689A601DE0FB68D868FB681B6C76
:102200001A46B968114B9847FB68DA68FB681B6C83
:102210005B421A44FB68DA60FB68DA68FB681B689B
:102220009A4207D2FB685A68FB681B6C5B421A44EF
:10223000FB68DA60FB689B6B5A1CFB689A6300BF03
:102240001037BD4680BD00BF351E000809000008DC
:1022500080B582B000AF786039607B681B68002B66
:1022600018D07B68DA687B681B6C1A447B68DA607C
:102270007B68DA687B685B689A4203D37B681A687C
:102280007B68DA607B68D9687B681B6C1A463868A3
:10229000024B984700BF0837BD4680BD09000008C3
:1022A00080B582B000AF7860234B984712E07B681E
:1022B0005B6A002B13D07B68243318461F4B98476A
:1022C0000346002B01D01E4B98477B689B6C5A1E1F
:1022D0007B689A647B689B6C002BE8DC00E000BFA5
:1022E0007B684FF0FF329A64164B9847124B984721
:1022F00012E07B681B69002B13D07B6810331846F3
:102300000E4B98470346002B01D00D4B98477B6836
:102310005B6C5A1E7B685A647B685B6C002BE8DC44
:1023200000E000BF7B684FF0FF325A64054B9847CE
:1023300000BF0837BD4680BDF92500089519000883
:10234000091B00081D26000880B584B000AF786026
:10235000084B98477B689B6B002B0CBF0123002325
:10236000DBB2FB60044B9847FB6818461037BD464C
:1023700080BD00BFF92500081D26000880B584B087
:1023800000AF7860094B98477B689A6B7B68DB6B82
:102390009A420CBF01230023DBB2FB60044B984739
:1023A000FB6818461037BD4680BD00BFF925000800
:1023B0001D26000880B483B000AF78607B6803F10D
:1023C00008027B685A607B684FF0FF329A607B6836
:1023D00003F108027B68DA607B6803F108027B681E
:1023E0001A617B6800221A6000BF0C37BD4680BCB2
:1023F000704780B483B000AF78607B6800221A61B8
:1024000000BF0C37BD4680BC704780B485B000AFBC
:10241000786039607B685B68FB60FB685A683B6882
:102420005A607B685A683B689A60FB685B683A68E8
:102430009A60FB683A685A607B683A685A603B6801
:102440007A681A617B681B685A1C7B681A6000BF37
:102450001437BD4680BC704780B485B000AF78604B
:1024600039603B681B68BB60BB68B3F1FF3F03D1B9
:102470007B681B69FB600CE07B680833FB6002E053
:10248000FB685B68FB60FB685B681B68BA689A4224
:10249000F6D2FB685A683B685A603B685B683A68EA
:1024A0009A603B68FA689A60FB683A685A603B68D1
:1024B0007A681A617B681B685A1C7B681A6000BFC7
:1024C0001437BD4680BC704780B485B000AF7860DB
:1024D0007B685B687A6892689A607B689B687A68B8
:1024E00052685A607B681B69FB60FB685B687A68AE
:1024F0009A4203D17B689A68FB685A607B68002225
:102500001A61FB681B685A1EFB681A6000BF14370B
:10251000BD4680BC704780B485B000AFF860B9603C
:102520007A60FB68043BFB60FB684FF080721A60C6
:10253000FB68043BFB60BA68FB681A60FB68043BFD
:10254000FB60FB6800221A60FB68143BFB607A6842
:10255000FB681A60FB68203BFB60FB681846143779
:10256000BD4680BC70470000064B19680868B0E89B
:10257000F00F80F309884FF0000080F311884EF0CF
:102580000D0E70475C06002000BF00BF03480068C6
:10259000006880F3088800DF00BF000008ED00E05D
:1025A00080B500AF0A4B1B68094A43F47F031360F0
:1025B000074B1B68064A43F07F431360054B98475F
:1025C000054B00221A60054B98470023184680BD32
:1025D00020ED00E0C1260008300100208D25000814
:1025E00080B400AF034B4FF080521A6000BFBD466D
:1025F00080BC704704ED00E080B400AF4FF0BF0036
:1026000080F31188044B1B680133034A136000BF39
:10261000BD4680BC704700BF3001002080B400AFD1
:10262000084B1B68013B074A1360064B1B68002BD5
:1026300003D14FF0000080F3118800BFBD4680BC7D
:10264000704700BF30010020EFF309800C4B1A687F
:1026500020E9F00F10602DE908404FF0BF0080F333
:102660001188FFF7FBF84FF0000080F31188BDE8F8
:10267000084019680868B0E8F00F80F309887047CF
:102680005C06002000BF00BF80B582B000AF0A4BDF
:102690004FF080521A6000237B604FF0BF0080F340
:1026A0001188064B98474FF0000080F3118800BF57
:1026B0000837BD4680BD00BF04ED00E0611700088B
:1026C00080B400AF054B4BF67F321A60044B0722F3
:1026D0001A6000BFBD4680BC704700BF14E000E038
:1026E00010E000E080B58AB000AF78600023FB61A5
:1026F0004A4B98474A4B1B68002B1CD1494B4A4A0E
:102700001A60484B00225A60484B4FF4A0425A606E
:10271000464B00221A60444B7B617B694FF4A04218
:102720005A607B69414A1A60414B4FF4A0421A60DB
:102730003B4B01221A607B68002B0ED010231A46F7
:102740007B6813447B607B6803F00703002B04D095
:102750007B6823F0070308337B607B68002B55D030
:102760007B68B3F5A04F51D22E4B3B622D4B1B68BB
:102770007B6204E07B6A3B627B6A1B687B627B6AEC
:102780005B687A689A4203D97B6A1B68002BF1D197
:102790007B6A264A934239D03B6A1B681022134455
:1027A000FB617B6A1A683B6A1A607B6A5A687B68BD
:1027B000D31A10225200934222D97A6A7B681344BA
:1027C0003B617B6A5A687B68D21A3B695A607B6AB4
:1027D0007A685A603B695B68FB60124BBB6102E040
:1027E000BB691B68BB61BB691B685B68FA689A427E
:1027F000F6D8BB691A683B691A60BB693A691A6006
:102800000B4B1A687B68D31A094A1360094B984727
:10281000FB6918462837BD4680BD00BF2D1600084D
:10282000D4570020C0570020C0070020C857002000
:10283000D05700204916000880B586B000AF7860F8
:102840007B683B617B68002B27D010235B423A6991
:1028500013443B613B69FB60124B9847FB685B6824
:10286000BB60114B7B6102E07B691B687B617B690C
:102870001B685B68BA689A42F6D87B691A68FB687D
:102880001A607B69FA681A60FB685A68074B1B6814
:102890001344064A1360064B984700BF1837BD46DD
:1028A00080BD00BF2D160008C0570020D057002063
:1028B0004916000880B400AF024B1B681846BD469D
:1028C00080BC7047D057002080B582B000AF7860E0
:1028D0007B68264A93420AD101214FF48040244B61
:1028E000984700214FF48040214B98473AE07B689D
:1028F000204A93420AD101214FF400301E4B9847E1
:1029000000214FF400301C4B98472BE07B681B4A9A
:1029100093420AD101214FF48020174B98470021A0
:102920004FF48020144B98471CE07B68144A934274
:102930000AD101214FF400200F4B984700214FF49A
:1029400000200D4B98470DE07B680E4A934209D159
:1029500001214FF48010084B984700214FF480105C
:10296000054B984700BF0837BD4680BD0038014081
:10297000353500080044004071350008004800402B
:10298000004C00400050004080B58CB000AF786033
:1029900039600023BB620023FB6200237B620023BB
:1029A0003B620023FB617B68FB617B681B8A9BB2F7
:1029B000BB62BA6A4CF6FF731340BB623B68DB88AC
:1029C0001A46BB6A1343BB62BB6A9AB27B681A821F
:1029D0007B689B899BB2BB62BA6A4EF6F3131340C5
:1029E000BB623B689A883B681B8913439AB23B6879
:1029F0005B8913439BB21A46BB6A1343BB62BB6A33
:102A00009AB27B689A817B689B8A9BB2BB62BA6AE6
:102A10004FF6FF431340BB623B689B891A46BB6A73
:102A20001343BB62BB6A9AB27B689A8207F10803C0
:102A300018460F4B9847FB690E4A934202D17B69B7
:102A4000FB6201E03B69FB62FB6A5A003B681B6862
:102A5000B2FBF3F301335B089AB27B681A8100235F
:102A60007B627B6A3B6200BF3037BD4680BD00BFE2
:102A7000113300080038014080B483B000AF7860A3
:102A80000B46FB70FB78002B08D07B689B899BB2C0
:102A900043F400539AB27B689A8107E07B689B8974
:102AA0009BB223F400539AB27B689A8100BF0C3723
:102AB000BD4680BC704780B483B000AF78600B46E1
:102AC0007B8013467B707B78002B08D07B689B8AC9
:102AD0009AB27B8813439AB27B689A8209E07B683A
:102AE0009B8A9AB27B88DB439BB213409AB27B6885
:102AF0009A8200BF0C37BD4680BC704780B483B05B
:102B000000AF78600B467B807B88DB439AB27B68A2
:102B10001A8000BF0C37BD4680BC704780B485B0BA
:102B200000AF78600023FB60094B1B68FB60FB680B
:102B300003F03803FB60FA687B681343FB60044AC8
:102B4000FB68136000BF1437BD4680BC704700BFF0
:102B50000020024080B483B000AF7860084B1B684F
:102B6000074A23F010031360054B1A6804497B6879
:102B700013430B6000BF0C37BD4680BC704700BFDD
:102B80000020024080B400AF044B054A5A60034B5A
:102B9000044A5A6000BFBD4680BC70470020024016
:102BA00023016745AB89EFCD80B400AF044B1B69AF
:102BB000034A43F08003136100BFBD4680BC7047E9
:102BC0000020024080B584B000AF78600423FB731E
:102BD00040F6FF70154B98470346FB73FB7B042BB5
:102BE0001ED1134B1B69124A43F002031361104AB2
:102BF0007B6853610E4B1B690D4A43F04003136120
:102C000040F6FF70094B98470346FB73FB7B052B8F
:102C100006D0074B1A69064941F6FD7313400B6154
:102C2000FB7B18461037BD4680BD00BFA92C0008AD
:102C30000020024080B483B000AF0346FB80044A0A
:102C4000FB88D36000BF0C37BD4680BC704700BF17
:102C50000020024080B483B000AF0423FB71114B0D
:102C6000DB6803F00103012B02D10123FB7113E0A8
:102C70000C4BDB6803F00403002B02D00223FB7132
:102C80000AE0084BDB6803F01003002B02D003239B
:102C9000FB7101E00423FB71FB7918460C37BD463C
:102CA00080BC70470020024080B584B000AF7860DF
:102CB0000423FB730E4B98470346FB7308E00D4B50
:102CC00098470B4B98470346FB737B68013B7B603F
:102CD000FB7B012B02D17B68002BF0D17B68002BA2
:102CE00001D10523FB73FB7B18461037BD4680BD21
:102CF000552C0008F92C000880B483B000AF0023E5
:102D00007B60FF237B6002E07B68013B7B607B682C
:102D1000002BF9D100BF00BF0C37BD4680BC704707
:102D200080B487B000AFF860B9607A60FB687B61FF
:102D3000BB683B61184B1B69174A43F001031361E1
:102D400019E07B691A883B691A8000BF124BDB6867
:102D500003F00103002BF9D13B691A887B691B88BA
:102D60009A420CD13B6902333B617B6902337B6140
:102D70007B68023B7B607B68002BE2D100E000BFF8
:102D8000054B1B69044A23F00103136100BF1C3784
:102D9000BD4680BC704700BF0020024080B489B0AF
:102DA00000AF786039600023FB6100233B610023A2
:102DB000BB610023FB6000237B610023BB603B6899
:102DC000DB7803F00F03FB613B68DB7803F0100353
:102DD000002B05D03B689B781A46FB691343FB61C7
:102DE0003B681B88DBB2002B44D07B681B687B618F
:102DF0000023BB6138E00122BB6902FA03F3FB60E8
:102E00003B681B881A46FB6813403B613A69FB68C4
:102E10009A4226D1BB699B00FB600F22FB6802FA35
:102E200003F3BB60BB68DB437A6913407B61FA69DB
:102E3000FB6802FA03F37A6913437B613B68DB7832
:102E4000282B05D10122BB699A407B685A6108E0B2
:102E50003B68DB78482B04D10122BB699A407B6830
:102E60001A61BB690133BB61BB69072BC3D97B689E
:102E70007A691A603B681B88FF2B46D97B685B68C0
:102E80007B610023BB613AE0BB690833012202FA8F
:102E900003F3FB603B681B881A46FB6813403B61E9
:102EA0003A69FB689A4227D1BB699B00FB600F22FD
:102EB000FB6802FA03F3BB60BB68DB437A6913402B
:102EC0007B61FA69FB6802FA03F37A6913437B6159
:102ED0003B68DB78282B05D1BB69083301229A4077
:102EE0007B685A613B68DB78482B05D1BB690833A6
:102EF00001229A407B681A61BB690133BB61BB69DF
:102F0000072BC1D97B687A695A6000BF2437BD4658
:102F100080BC704780B483B000AF78607B684FF6A8
:102F2000FF721A807B6802229A707B680422DA7032
:102F300000BF0C37BD4680BC704780B485B000AF81
:102F400078600B467B800023FB737B689A687B88E4
:102F50001340002B02D00123FB7301E00023FB731D
:102F6000FB7B18461437BD4680BC704780B483B0E5
:102F700000AF78600B467B807A887B681A6100BF5F
:102F80000C37BD4680BC704780B483B000AF78601A
:102F90000B467B807A887B685A6100BF0C37BD4640
:102FA00080BC704780B487B000AF78600B46FB7080
:102FB00000233B610023FB6000237B610023BB6097
:102FC000284B5B687B617B681B0C03F00F03BB60C5
:102FD0007B689BB23B617B6803F44013B3F5401FF1
:102FE0000AD17B6923F070637B611E4B5B681D4ACD
:102FF00023F07063536021E07B6803F48013002B9F
:103000000ED00322BB6802FA03F3FB60FB68DB43CC
:103010007A6913407B617B6943F070637B610DE0EB
:103020007B685B0D1B013A6902FA03F3DB437A69A3
:1030300013407B617B6943F070637B61FB78002BFD
:1030400008D07B685B0D1B013A6902FA03F37A69C9
:1030500013437B61034A7B69536000BF1C37BD4645
:1030600080BC70470000014080B400AF134B1B6868
:10307000124A43F001031360104B5A680F49104B7A
:1030800013404B600D4B1B680C4A23F0847323F4F0
:1030900080331360094B1B68084A23F480231360B4
:1030A000064B5B68054A23F4FE035360034B4FF461
:1030B0001F029A6000BFBD4680BC704700100240EE
:1030C0000000FFF880B483B000AF7860134B1B683A
:1030D000124A23F480331360104B1B680F4A23F409
:1030E000802313607B68B3F5803F04D07B68B3F521
:1030F000802F07D00DE0094B1B68084A43F480334A
:10310000136006E0054B1B68044A43F4A0231360D8
:1031100000BF00BF0C37BD4680BC704700100240A6
:1031200080B582B000AF00233B600023FB71002319
:10313000BB7131200F4B98470346BB713B6801338D
:103140003B603B684FF6FF72934202D0BB79002B85
:10315000EFD03120074B98470346002B02D00123C4
:10316000FB7101E00023FB71FB7918460837BD466F
:1031700080BD00BFAD35000880B485B000AF786079
:1031800039600023FB600A4B5B68FB60FB6823F43B
:103190007C13FB607A683B681343FA681343FB6057
:1031A000034AFB68536000BF1437BD4680BC7047BC
:1031B0000010024080B483B000AF0346FB71044AA4
:1031C000FB79136000BF0C37BD4680BC704700BF61
:1031D0006000424280B485B000AF78600023FB609D
:1031E000094B5B68FB60FB6823F00303FB60FA6834
:1031F0007B681343FB60044AFB68536000BF1437CD
:10320000BD4680BC704700BF0010024080B400AFD4
:10321000044B5B68DBB203F00C03DBB21846BD461F
:1032200080BC70470010024080B485B000AF786069
:103230000023FB60094B5B68FB60FB6823F0F00335
:10324000FB60FA687B681343FB60044AFB685360C9
:1032500000BF1437BD4680BC704700BF001002405D
:1032600080B485B000AF78600023FB60094B5B68D9
:10327000FB60FB6823F4E063FB60FA687B68134340
:10328000FB60044AFB68536000BF1437BD4680BC36
:10329000704700BF0010024080B485B000AF786076
:1032A0000023FB60094B5B68FB60FB6823F4605301
:1032B000FB607B68DB00FA681343FB60034AFB6832
:1032C000536000BF1437BD4680BC704700100240F9
:1032D00080B483B000AF0346FB710C4B00221A7020
:1032E0000A4B00221A70FB79012B02D0042B04D068
:1032F00007E0064B01221A7003E0044B05221A7006
:1033000000BF00BF0C37BD4680BC70472010024094
:1033100080B487B000AF786000237B6100233B61FD
:103320000023FB600023BB604F4B5B6803F00C0382
:103330007B617B69082B11D07B69082B3AD87B69AC
:10334000002B03D07B69042B04D033E07B68474A11
:103350001A6033E07B68464A1A602FE0424B5B6894
:1033600003F470133B61404B5B6803F48033FB60F4
:103370003B699B0C02333B61FB68002B06D13B6928
:103380003C4A03FB02F27B681A6017E0364B5B682D
:1033900003F40033002B06D03B69344A03FB02F2EE
:1033A0007B681A600AE03B69314A03FB02F27B68E2
:1033B0001A6003E07B682D4A1A6000BF2A4B5B68E5
:1033C00003F0F0037B617B691B097B612A4A7B69FF
:1033D00013441B78DBB2BB607B681A68BB68DA40B9
:1033E0007B685A60204B5B6803F4E0637B617B6918
:1033F0001B0A7B61204A7B6913441B78DBB2BB60EC
:103400007B685A68BB68DA407B689A60164B5B68D9
:1034100003F460537B617B69DB0A7B61164A7B693D
:1034200013441B78DBB2BB607B685A68BB68DA4028
:103430007B68DA600C4B5B6803F440437B617B691B
:103440009B0B7B610D4A7B6913441B78DBB2BB602D
:103450007B68DA68BB68B2FBF3F27B681A6100BF75
:103460001C37BD4680BC70470010024000127A0035
:103470000024F40000093D00340100204401002034
:1034800080B483B000AF78600B46FB70FB78002BF4
:1034900006D0094B5A6908497B6813434B6106E023
:1034A000054B5A697B68DB43034913404B6100BFFE
:1034B0000C37BD4680BC70470010024080B483B01A
:1034C00000AF78600B46FB70FB78002B06D0094BF1
:1034D0009A6908497B6813438B6106E0054B9A693A
:1034E0007B68DB43034913408B6100BF0C37BD464B
:1034F00080BC70470010024080B483B000AF786099
:103500000B46FB70FB78002B06D0094BDA690849A3
:103510007B681343CB6106E0054BDA697B68DB43CC
:1035200003491340CB6100BF0C37BD4680BC7047D8
:103530000010024080B483B000AF78600B46FB708F
:10354000FB78002B06D0094BDA6808497B681343E7
:10355000CB6006E0054BDA687B68DB430349134028
:10356000CB6000BF0C37BD4680BC704700100240E6
:1035700080B483B000AF78600B46FB70FB78002B03
:1035800006D0094B1A6908497B6813430B6106E0B2
:10359000054B1A697B68DB43034913400B6100BF8D
:1035A0000C37BD4680BC70470010024080B487B025
:1035B00000AF0346FB710023FB6000237B61002307
:1035C000FB74FB795B09DBB2FB60FB68012B03D169
:1035D000124B1B687B6109E0FB68022B03D10F4B88
:1035E0001B6A7B6102E00D4B5B6A7B61FB7903F038
:1035F0001F03FB607A69FB6822FA03F303F00103FF
:10360000002B02D00123FB7401E00023FB74FB7C40
:1036100018461C37BD4680BC704700BF00100240F2
:1036200080B485B000AF03460A46FB801346BB80DA
:103630000023FB60074BFB60FA88FB681344FB60C8
:10364000FB681A46BB88136000BF1437BD4680BCB8
:10365000704700BF006C004080B485B000AF0346E7
:10366000FB800023FB60074BFB60FA88FB68134478
:10367000FB60FB681B889BB218461437BD4680BCB4
:10368000704700BF006C004080B483B000AF0346B9
:10369000FB71044AFB79136000BF0C37BD4680BC48
:1036A000704700BF20000E4280B483B000AF0346D5
:1036B000FB80044AFB88136000BF0C37BD4680BC0A
:1036C000704700BF0030004080B483B000AF0346B5
:1036D000FB71044AFB79536000BF0C37BD4680BCC8
:1036E000704700BF0030004080B483B000AF034695
:1036F000FB80044AFB88936000BF0C37BD4680BC4A
:10370000704700BF0030004080B400AF034B4AF662
:10371000AA221A6000BFBD4680BC7047003000403E
:1037200080B400AF034B4CF6CC421A6000BFBD46DC
:1037300080BC70470030004080B483B000AF786038
:103740007B681B6823F001027B681A607B6800229B
:103750001A607B6800225A607B6800229A607B684E
:103760000022DA607B68434A934206D1424B5B6891
:10377000414A43F00F03536077E07B683F4A93422E
:1037800006D13D4B5B683C4A43F0F00353606CE06C
:103790007B683B4A934206D1374B5B68364A43F419
:1037A0007063536061E07B68364A934206D1324BC6
:1037B0005B68314A43F47043536056E07B68324A99
:1037C000934206D12C4B5B682B4A43F47023536021
:1037D0004BE07B682D4A934206D1274B5B68264A13
:1037E00043F47003536040E07B68294A934206D15A
:1037F000214B5B68204A43F07063536035E07B687F
:10380000244A934206D1244B5B68234A43F00F03BA
:1038100053602AE07B68214A934206D11E4B5B68C5
:103820001D4A43F0F00353601FE07B681C4A93423B
:1038300006D1194B5B68184A43F47063536014E077
:103840007B68184A934206D1134B5B68124A43F4D3
:103850007043536009E07B68134A934205D10E4BD5
:103860005B680D4A43F47023536000BF0C37BD46BC
:1038700080BC704708000240000002401C0002406B
:103880003000024044000240580002406C000240F8
:103890008000024008040240000402401C04024070
:1038A00030040240440402405804024080B485B011
:1038B00000AF786039600023FB607B681B68FB60A9
:1038C000FB6823F4FF4323F07003FB603B689A68B6
:1038D0003B681B6A1A433B681B691A433B685B6978
:1038E0001A433B689B691A433B68DB691A433B6890
:1038F0005B6A1A433B689B6A1343FA681343FB6095
:103900007B68FA681A603B68DA687B685A603B68D3
:103910001A687B689A603B685A687B68DA6000BF07
:103920001437BD4680BC704780B483B000AF786068
:103930000B46FB70FB78002B06D07B681B6843F0BE
:1039400001027B681A6005E07B681B6823F00102B6
:103950007B681A6000BF0C37BD4680BC704780B4DE
:1039600085B000AFF860B9601346FB71FB79002B9E
:1039700006D0FB681A68BB681A43FB681A6006E049
:10398000FB681A68BB68DB431A40FB681A6000BF1B
:103990001437BD4680BC704780B483B000AF7860F8
:1039A0007B685B689BB218460C37BD4680BC70478D
:1039B00080B483B000AF78607B6803F08053002B45
:1039C00003D0064A7B68536002E0054A7B68536077
:1039D00000BF0C37BD4680BC704700BF00040240EA
:1039E0000000024080B483B000AF78607B6803F0D1
:1039F0008053002B03D0064A7B68536002E0054ADF
:103A00007B68536000BF0C37BD4680BC704700BF69
:103A1000000402400000024080B483B000AF786030
:103A200039607B681B889BB203F08F039AB27B6876
:103A30001A807B681B889AB23B68D9883B685B8890
:103A40000B439BB213439AB27B681A803B689A88F7
:103A50007B689A853B681A887B681A857B680A4A66
:103A6000934203D07B68094A934204D13B681B7A96
:103A70009AB27B681A867B6801229A8200BF0C3753
:103A8000BD4680BC704700BF002C0140003401409F
:103A900080B483B000AF78600B46FB70FB78002BDE
:103AA00008D07B681B889BB243F001039AB27B6805
:103AB0001A8008E07B681B889AB240F2FE331340FC
:103AC0009AB27B681A8000BF0C37BD4680BC704735
:103AD00080B483B000AF78600B467B8013467B7068
:103AE0007B78002B08D07B689B899AB27B88134334
:103AF0009AB27B689A8109E07B689B899AB27B883D
:103B0000DB439BB213409AB27B689A8100BF0C37AB
:103B1000BD4680BC704780B483B000AF78600B4670
:103B2000FB70FB78002B08D07B681B889BB243F0AE
:103B300080039AB27B681A8008E07B681B889AB27F
:103B400040F27F3313409AB27B681A8000BF0C3773
:103B5000BD4680BC704780B483B000AF78607B689E
:103B60009B8F9BB218460C37BD4680BC704780B413
:103B700083B000AF78607B68B3F840309BB21846E2
:103B80000C37BD4680BC704780B483B000AF78600E
:103B90000B467B807B88DB439AB27B681A8200BF2E
:103BA0000C37BD4680BC704780B485B000AF7860EC
:103BB0000B467B800023FB730023BB8100237B81AA
:103BC0007B681B8A9AB27B881340BB817B689B8988
:103BD0009AB27B8813407B81BB89002B05D07B89FF
:103BE000002B02D00123FB7301E00023FB73FB7B5E
:103BF00018461437BD4680BC704780B483B000AF10
:103C000078600B467B807B88DB439AB27B681A82A4
:103C100000BF0C37BD4680BC7047000080B58AB03D
:103C200000AF786039600023FB8400237B84042389
:103C3000BB84574BFB617B689B88FB84FB8C23F028
:103C40003F03FB8407F108031846524B98473B6932
:103C5000FB61FB69504AA2FB03239B0C7B84FA8C1B
:103C60007B8C1343FB847B68FA8C9A807B681B886F
:103C70009BB223F001039AB27B681A800023FB8475
:103C80003B681B68454A934215D83B681B685B003C
:103C9000FA69B2FBF3F3BB84BB8C032B01D804237A
:103CA000BB84FA8CBB8C1343FB847B8C01339AB2AC
:103CB0007B681A8440E03B68DB884BF6FF729342D6
:103CC00009D13B681A6813465B001344FA69B2FBDA
:103CD000F3F3BB840EE03B681A6813469B00134461
:103CE0009A001344FA69B2FBF3F3BB84BB8C43F430
:103CF0008043BB84BB8CC3F30B03002B03D1BB8C71
:103D000043F00103BB84BA8CFB8C13439BB26FEA74
:103D100043436FEA5343FB847B8C4FF4967202FB60
:103D200003F31F4A82FB03129211DB17D31A9BB2D3
:103D300001339AB27B681A847B68FA8C9A837B6819
:103D40001B889BB243F001039AB27B681A807B68A0
:103D50001B88FB84FB8C23F4816323F00203FB8428
:103D60003B689A883B685B8913439AB2FB8C134388
:103D7000FB847B68FA8C1A803B689A893B681B89B4
:103D800013439AB27B681A8100BF2837BD4680BDB5
:103D900000127A001133000883DE1B43A086010065
:103DA000D34D621080B483B000AF78600B46FB70D7
:103DB000FB78002B08D07B681B889BB243F0010383
:103DC0009AB27B681A8007E07B681B889BB223F05D
:103DD00001039AB27B681A8000BF0C37BD4680BCD5
:103DE000704780B483B000AF78600B46FB70FB78FF
:103DF000002B08D07B681B889BB243F480739AB277
:103E00007B681A8007E07B681B889BB223F4807371
:103E10009AB27B681A8000BF0C37BD4680BC7047E1
:103E200080B483B000AF78600B46FB70FB78002B4A
:103E300008D07B681B889BB243F400739AB27B68FE
:103E40001A8007E07B681B889BB223F400739AB248
:103E50007B681A8000BF0C37BD4680BC704780B4B9
:103E600083B000AF78600B46FB70FB78002B08D066
:103E70007B681B889BB243F480639AB27B681A808C
:103E800007E07B681B889BB223F480639AB27B684F
:103E90001A8000BF0C37BD4680BC704780B483B029
:103EA00000AF78600B467B8013467B707B78002BDD
:103EB00008D07B689B889AB27B8813439AB27B6850
:103EC0009A8009E07B689B889AB27B88DB439BB22F
:103ED00013409AB27B689A8000BF0C37BD4680BC05
:103EE000704780B483B000AF78600B46FB70FB78FE
:103EF0009AB27B681A8200BF0C37BD4680BC7047FF
:103F000080B483B000AF78607B681B8A9BB2DBB261
:103F100018460C37BD4680BC704780B483B000AFF4
:103F200078600B46FB701346BB70BB78002B04D047
:103F3000FB7843F00103FB7003E0FB7823F00103FF
:103F4000FB70FB789AB27B681A8200BF0C37BD46C3
:103F500080BC704780B485B000AF78600B46FB70C2
:103F60000023FB607B68FB60FA78FB681344FB600E
:103F7000FB681B889BB218461437BD4680BC70474F
:103F800080B487B000AF786000237B6100233B6181
:103F90000023FB607B689B8A9BB23B617B681B8B29
:103FA0009BB2FB60FB681B04FB603A69FB68134330
:103FB00023F07F437B617B6918461C37BD4680BC7C
:103FC000704780B487B000AF7860396000233B61F0
:103FD0000023FB600023BB600023FB757B689B8A8A
:103FE0009BB2FB607B681B8B9BB2BB60BB681B04F6
:103FF000BB60FA68BB6813433A6813403B613A6997
:104000003B689A4202D10123FB7501E00023FB7556
:10401000FB7D18461C37BD4680BC704780B487B016
:1040200000AF786039600023FB7500233B610023FB
:10403000FB607B68FB603B681B0F3B613B6823F0C8
:104040007F433B603B69002B03D0FB681433FB606C
:1040500005E03B681B0C3B60FB681833FB60FB68AA
:104060001A683B681340002B02D00123FB7501E066
:104070000023FB75FB7D18461C37BD4680BC70478E
:1040800080B485B000AF786039600023FB603B6886
:1040900023F07F43FB60FB689BB2DB439AB27B68F3
:1040A0009A8200BF1437BD4680BC704780B485B08B
:1040B00000AF786039600023FB603B6823F07F43EA
:1040C000FB60FB689BB2DB439AB27B689A8200BFBD
:1040D0001437BD4680BC704780B483B000AF7860B1
:1040E000054A7B6843F0BF6343F40033D36000BFED
:1040F0000C37BD4680BC704700ED00E080B487B04F
:1041000000AF786000237B6100233B610F23FB60DD
:104110007B68DB78002B3AD0274BDB68DB431B0A3C
:1041200003F007037B617B69C3F104033B61FA6819
:104130007B6922FA03F3FB607B685B781A463B6974
:1041400002FA03F37B617B689B781A46FB68134095
:104150007A6913437B617B691B017B61174A7B682A
:104160001B787969C9B213440A4683F800237B6837
:104170001B7803F01F0311497A6812785209D2B2F2
:104180001046012202FA03F341F820300FE07B6869
:104190001B7803F01F0309497A6812785209D2B2DA
:1041A000104601229A4000F1200341F8232000BF6D
:1041B0001C37BD4680BC704700ED00E000E100E028
:1041C00080B483B000AF786039603B6823F060430F
:1041D00023F07F0304497A6813438B6000BF0C37D8
:1041E000BD4680BC704700BF00ED00E080B483B0E6
:1041F00000AF0346FB71FB7903F01F03012202FAB3
:1042000003F1054A97F907305B0942F8231000BF14
:104210000C37BD4680BC704700E100E080B483B03D
:1042200000AF03463960FB7197F90730002B0BDABA
:104230003B68DAB20C49FB7903F00F03043B12012F
:10424000D2B20B441A7609E03B68DAB2074997F913
:1042500007301201D2B20B4483F8002300BF0C37A1
:10426000BD4680BC704700BF00ED00E000E100E00B
:1042700080B590B000AFF860B9607A603B60002113
:10428000B868154B9847B868144B9847FB680433D7
:104290007B617B68BB611023FB613B683B62002351
:1042A0007B628023BB620023FB6200233B6300230D
:1042B0007B634FF44053BB630023FB6307F114039C
:1042C0001946B868064B98470121B868024B9847D1
:1042D00000BF4037BD4680BD293900083937000886
:1042E000AD38000880B590B000AFF860B9607A6072
:1042F0003B60B868134B9847FB6804337B617B686D
:10430000BB610023FB613B683B6200237B6280232F
:10431000BB620023FB6200233B6320237B634FF4DB
:104320004053BB630023FB6307F114031946B868CD
:10433000054B98470121B868044B984700BF4037A8
:10434000BD4680BD39370008AD380008293900085E
:1043500090B587B000AF786001210120244B9847C9
:104360002448254B984701210120244B98470121DF
:104370001C20224B984701214FF480401F4B984747
:104380007B68BB600023BB810023FB8100233B8251
:104390000023BB820C237B8207F1080319461548D2
:1043A000174B98474FF458711248164B98474FF4E3
:1043B0008063154A15490F48154CA04701228021FA
:1043C0000C48144B9847012240210A48114B98474A
:1043D00003210F20104B98470F20104B98470121C5
:1043E00004480F4B984700BF1C37BD4690BD00BF27
:1043F0008134000800380140C9280008BD34000895
:1044000089290008FD2A0008E457002058000240CE
:10441000E5420008B72A00081D420008ED410008E7
:10442000792A000890B583B000AF7860114B1C6802
:104430001148124B98470346C3F580639C4213D042
:104440000C4B1B680B4A13441A7B7B681A70094B90
:104450001B680133074A1360064B1B68C3F309034B
:10446000044A1360012300E0002318460C37BD46C0
:1044700090BD00BFD857002058000240993900086D
:1044800080B483B000AF0346FB71154B9B68144AA0
:104490001344FA7983F84C24114B9B680133104A7A
:1044A00093600F4B9B68C3F309030D4A93600C4B59
:1044B0009A680B4B5B689A420CD1094B9B68013B95
:1044C000074A9360064B9B68C3F30903044A936051
:1044D000002300E0012318460C37BD4680BC70471E
:1044E000D857002090B585B002AF00237B60234BE6
:1044F0001B6803F00103002B3BD11AE0204B5B68E3
:104500001F4A134493F84C141D4A7B68134403F26A
:104510000C430A461A701A4B5B680133184A536001
:10452000174B5B68C3F30903154A53607B6801337B
:104530007B60134B5A68124B9B689A4202D07B688F
:104540003F2BDBD97B68002B13D0012300937B68C2
:104550000C4A0A490C480D4CA04701220221074889
:104560000B4B984702210E200A4B98470E200A4B0E
:10457000984700BF0C37BD4690BD00BF44000240C5
:10458000D8570020E45B0020003801407142000849
:104590005F3900081D420008ED41000880B586B073
:1045A00000AF786039600023FB820023BB827B6808
:1045B0003B610DE0FA7B3B691A703B6901333B615B
:1045C000FB7B9AB2BB8A1344BB82FB8A0133FB821A
:1045D00007F10F031846074B98470346002B03D0FB
:1045E000FB8A3A689A42E5D8FB8A18461837BD46D6
:1045F00080BD00BF2544000880B584B000AF78605E
:1046000039603B68002B14D00DE07B681B78FB738E
:10461000FB7B1846094B9847B8607B6801337B6089
:104620003B68013B3B603B68002BEED1044B984755
:1046300000E000BF1037BD4680BD00BF81440008C8
:10464000E544000880B500AF00210548054B9847B8
:104650004FF40050044B9847044B984700BF80BD6F
:104660004400024029390008B1390008E544000837
:1046700080B582B000AF4FF40030074B9847074B2E
:104680001B68064A13600648064B984703467B6042
:1046900000BF0837BD4680BDB1390008D85700209B
:1046A000580002409939000890B587B000AF786093
:1046B00001210120204B98472048214B9847012198
:1046C0004FF400301F4B98477B68BB600023BB81D1
:1046D0000023FB8100233B820023BB820C237B82CF
:1046E00007F1080319461548174B98474FF45871BE
:1046F0001248164B98474FF48063154A15490F48E6
:10470000154CA047012280210C48144B98470122E8
:1047100040210A48114B984707211020104B984719
:104720001020104B9847012104480F4B984700BFB9
:104730001C37BD4690BD00BF8134000800440040D6
:10474000C9280008F934000889290008FD2A000852
:10475000306000206C000240E5420008B72A0008E3
:104760001D420008ED410008792A000890B583B089
:1047700000AF7860114B1C681148124B98470346F4
:10478000C3F580639C4213D00C4B1B680B4A134447
:104790001A7B7B681A70094B1B680133074A136048
:1047A000064B1B68C3F30903044A1360012300E0AE
:1047B000002318460C37BD4690BD00BF2460002082
:1047C0006C0002409939000880B483B000AF034602
:1047D000FB71154B9B68144A1344FA7983F84C24F7
:1047E000114B9B680133104A93600F4B9B68C3F3D6
:1047F00009030D4A93600C4B9A680B4B5B689A4215
:104800000CD1094B9B68013B074A9360064B9B68A0
:10481000C3F30903044A9360002300E00123184610
:104820000C37BD4680BC70472460002090B585B031
:1048300002AF00237B60234B1B6803F00103002BB6
:104840003BD11AE0204B5B681F4A134493F84C1489
:104850001D4A7B68134403F20C430A461A701A4B34
:104860005B680133184A5360174B5B68C3F3090355
:10487000154A53607B6801337B60134B5A68124BB7
:104880009B689A4202D07B683F2BDBD97B68002B68
:1048900013D0012300937B680C4A0A490C480D4C45
:1048A000A0470122022107480B4B984706211120FF
:1048B0000A4B984711200A4B984700BF0C37BD465A
:1048C00090BD00BF800002402460002030640020C2
:1048D00000440040714200085F3900081D42000892
:1048E000ED41000880B586B000AF786039600023E4
:1048F000FB820023BB827B683B610DE0FA7B3B6956
:104900001A703B6901333B61FB7B9AB2BB8A13444B
:10491000BB82FB8A0133FB8207F10F031846074B6A
:1049200098470346002B03D0FB8A3A689A42E5D8A1
:10493000FB8A18461837BD4680BD00BF6D4700088A
:1049400080B584B000AF786039603B68002B14D02C
:104950000BE07B681B78FB73FB7B1846094B984781
:104960000346BB607B6801337B603B685A1E3A603C
:10497000002BEED1044B984700E000BF1037BD4636
:1049800080BD00BFC94700082D48000880B500AFB2
:1049900000210748074B98474FF00070064B984797
:1049A0004FF00070054B9847054B984700BF80BDFE
:1049B0008000024029390008E5390008B1390008B3
:1049C0002D48000880B582B000AF4FF40010074BAF
:1049D0009847074B1B68064A13600648064B9847E2
:1049E00003467B6000BF0837BD4680BDB139000873
:1049F000246000206C0002409939000890B587B00F
:104A000000AF786001210120264B98472648274BAC
:104A1000984701210120264B984701211C20244B57
:104A2000984701214FF48020224B984701212248CA
:104A3000224B98477B68BB600023BB810023FB812E
:104A400000233B820023BB820C237B8207F10803F7
:104A5000194615481A4B98474FF458711248194B8C
:104A600098474FF48063184A18490F48184CA047DC
:104A7000012280210C48174B9847012240210A4807
:104A8000144B984701210D20134B98470D20134BD1
:104A9000984701210448124B984700BF1C37BD4678
:104AA00090BD00BF8134000800480040C9280008BC
:104AB000BD340008F934000810001400A52F0008C8
:104AC00089290008FD2A00087C6800203000024087
:104AD000E5420008B72A00081D420008ED41000821
:104AE000792A000890B585B000AF78601348144B60
:104AF00098470346FB60134B1C681048104B9847BF
:104B00000346C3F580639C4213D00E4B1B680D4ACD
:104B100013441A7B7B681A700A4B1B680133094ADD
:104B20001360084B1B68C3F30903064A1360012393
:104B300000E0002318461437BD4690BD3000024007
:104B4000993900087068002080B483B000AF034634
:104B5000FB71154B9B68144A1344FA7983F84C2473
:104B6000114B9B680133104A93600F4B9B68C3F352
:104B700009030D4A93600C4B9A680B4B5B689A4291
:104B80000CD1094B9B68013B074A9360064B9B681D
:104B9000C3F30903044A9360002300E0012318468D
:104BA0000C37BD4680BC70477068002090B585B05A
:104BB00002AF00237B60264B1B6803F00103002B30
:104BC00042D121E0234B5B68224A134493F84C14F2
:104BD000204A7B68134403F20C430A461A701D4BAB
:104BE0005B681C4A1344002283F84C24194B5B6811
:104BF0000133184A5360174B5B68C3F30903154A26
:104C000053607B6801337B60124B5A68114B9B6881
:104C10009A4202D07B683F2BD4D97B68002B13D0FB
:104C2000012300937B680C4A09490C480C4CA047AF
:104C30000122022106480B4B984703210C200A4B06
:104C400098470C20094B984700BF0C37BD4690BDD4
:104C50001C000240706800207C6C0020004800406E
:104C6000714200085F3900081D420008ED4100084C
:104C700080B586B000AF786039600023FB820023E6
:104C8000BB827B683B610DE0FA7B3B691A703B6934
:104C900001333B61FB7B9AB2BB8A1344BB82FB8A24
:104CA0000133FB8207F10F031846074B9847034671
:104CB000002B03D0FB8A3A689A42E5D8FB8A184653
:104CC0001837BD4680BD00BFE54A000880B584B0F6
:104CD00000AF786039600023FB733B68002B1DD068
:104CE0000DE07B681B78FB73FB7B18460D4B9847E8
:104CF000B8607B6801337B603B68013B3B603B688D
:104D0000002BEED100210848084B984700220221D1
:104D10000548074B9847074B984700E000BF1037FE
:104D2000BD4680BD494B00081C00024029390008DF
:104D30005F390008AD4B000880B500AF0021064880
:104D4000064B98472020064B98472020054B984754
:104D5000054B984700BF80BD1C0002402939000860
:104D6000E5390008B1390008AD4B000880B582B0C4
:104D700000AF4FF40070074B9847074B1B68064A7B
:104D800013600648064B984703467B6000BF083710
:104D9000BD4680BDB1390008706800203000024077
:104DA0009939000880B582B000AF08213248334BF2
:104DB00098470346012B2BD1314B1B68002B04D1A4
:104DC00002213048304B984703E002212D482F4BF9
:104DD00098472B4B1B6883F00103294A1360082175
:104DE00025482B4B984724482A4B98470346FB807D
:104DF000FB88294A12889B1A1A4613469B001344C3
:104E0000264AB2FBF3F3264A1360234AFB88138039
:104E100010211948194B98470346012B28D1214BE3
:104E20001B6883F001031F4A136010211248184BBE
:104E3000984711481C4B98470346FB80FB881B4A48
:104E400012889B1A1A4A128813441A4613469B006A
:104E50001344184AB2FBF3F3114A5360134B1B88F7
:104E6000FA88D31A9AB2124B1A80104AFB88138020
:104E700000BF0837BD4680BD00340140A93B000893
:104E8000C4700020000C01406D2F0008892F00081D
:104E9000FB3B0008573B0008C87000200048E801B1
:104EA000BC700020CC7000206F3B0008D070002048
:104EB000D27000200046C32380B483B000AF786076
:104EC0007B6803F00303002B0AD17A680E4BA3FB27
:104ED00002135B09642101FB03F3D31A002B0BD1EE
:104EE0007A68094BA3FB0213DB094FF4C87101FB7D
:104EF00003F3D31A002B01D1012300E0002318464D
:104F00000C37BD4680BC70471F85EB5180B483B021
:104F100000AF0346FB71FB7903F00F02FB791B091D
:104F2000DBB219460B469B000B445B00134418464A
:104F30000C37BD4680BC704780B586B000AF786046
:104F4000284A07F1080307CA83E807007B681B8823
:104F50009BB21A467B681B889BB29B089BB213448A
:104F60007A68528892B2013A18323A4412F8102CF8
:104F700013447A68928892B213447B617B681B88E1
:104F80009BB21846184B98470346012B13D17B68F8
:104F90005B889BB2012B0ED87B695A1E134B83FB97
:104FA000021313449910D317C91A0B46DB005B1A7E
:104FB000D31A7B610CE07A690C4B83FB0213134418
:104FC0009910D317C91A0B46DB005B1AD31A7B6101
:104FD0007B69002B01D107237B617B691846183759
:104FE000BD4680BD48490108B94E00089324499246
:104FF00080B485B000AF78607968164BA3FB0123BD
:10500000DA0813469B0013445B00CA1AD3B27B73C1
:105010007B68104AA2FB0323DB087B6079680D4B99
:10502000A3FB0123DA0813469B0013445B00CA1A52
:10503000D3B23B737B7B5BB203F00F035AB23B7B73
:105040001B015BB213435BB2DBB218461437BD469B
:1050500080BC7047CDCCCCCC80B582B000AF644B67
:105060001B68002B00F0C08004211C20614B984776
:10507000072200216048614B9847034683F00103F3
:10508000DBB2002B40F0AF805B4B1B7818465C4BCB
:10509000984703469AB25B4B9A81574B5B78184608
:1050A000574B984703469AB2564B5A81524B9B78BE
:1050B0001846534B984703469AB2524B1A814E4BAF
:1050C000DB7818464E4B984703469AB24D4BDA8030
:1050D000494B1B7918464A4B984703469AB2494BAD
:1050E0009A80454B5B791846454B984703469AB2E0
:1050F000444B5A80404B9B791846414B9847034696
:105100009BB203F5FA639AB23E4B1A803D4B1B8962
:105110000C2B13D13C4B1B68B3F800319BB2012B15
:105120000CD13A4B1B7883F00103DBB2002B05D086
:10513000374B1B78002B01D0364B9847314B1B89DE
:10514000172B0FD12F4B5B893B2B0BD12D4B9B8901
:105150003B2B07D12D4B1B78002B0AD12E4B1B78F4
:10516000002B06D1284B1B68B3F800319BB2002BF3
:1051700005D1264B00221A70274B00221A70214BB2
:105180009B891846254B984703463B701D4B5B890E
:105190001846224B984703467B701A4B1B891846CA
:1051A0001E4B98470346BB70164BDB8818461B4BBB
:1051B00098470346FB70134B9B881846174B98473C
:1051C00003463B710F4B5B881846144B98470346C8
:1051D0007B713B46062207211846114B9847114B1D
:1051E00000221A6000E000BF0837BD4680BD00BF46
:1051F000BC7200202136000800710020B55B000859
:105200000D4F0008D470002048010020FC700020E1
:10521000B5720020EDC10008FD700020F14F0008BC
:10522000B5600008BD72002080B582B000AF1221C9
:105230001C20664B98470A237B609C23FB7006E08A
:105240007B685A1E7A60002B01DC0023B9E0FB78F2
:1052500001220E2118465E4B9847034683F0010356
:10526000DBB2002BECD105205A4B98470A237B6018
:10527000B823FB7006E07B685A1E7A60002B01DCC5
:1052800000239EE0FB7801220F211846504B9847DF
:10529000034683F00103DBB2002BECD105204D4B1C
:1052A00098470A237B6006E07B685A1E7A60002BD1
:1052B00001DC002385E0072200214748474B98473F
:1052C000034683F00103DBB2002BEDD113211C2038
:1052D0003E4B9847404B1B781846414B9847034636
:1052E0009AB2404B9A813C4B5B7818463C4B9847AE
:1052F00003469AB23B4B5A81374B9B781846384B42
:10530000984703469AB2374B1A81334BDB781846DD
:10531000334B984703469AB2324BDA802E4B1B79B7
:1053200018462F4B984703469AB22E4B9A802A4B29
:105330005B7918462A4B984703469AB2294B5A8004
:10534000254B9B791846264B984703469BB203F59D
:10535000FA639AB2234B1A8014201E4B9847224BB3
:1053600001221A601F4B1B88B3F5FA6F17D11D4B32
:10537000FF229A811B4BFF225A811A4BFF221A816E
:10538000184BFF22DA80174BFF229A80154BFF2221
:105390005A80144BFF221A80134B00221A601421EA
:1053A0001C200A4B98470622072110480B4B9847B0
:1053B000034683F00103DBB2002B01D0002300E0A1
:1053C000012318460837BD4680BD00BF21360008BE
:1053D000B56000082915000800710020B55B0008C1
:1053E0000D4F0008D4700020BC720020087100200E
:1053F00080B582B000AF78607B6800229A7300228B
:10540000DA731F4B1B7818461E4B984703469AB217
:105410007B689A811A4B5B7818461A4B984703466B
:105420009AB27B685A81164B9B781846154B984761
:1054300003469AB27B681A81114BDB781846114BF0
:10544000984703469AB27B68DA800D4B1B79184661
:105450000C4B984703469AB27B689A80084B5B795D
:105460001846084B984703469AB27B685A80064B09
:105470001A887B681A8000BF0837BD4680BD00BF10
:10548000087100200D4F0008D470002080B483B054
:1054900000AF7860124BDA897B68DA81104B9A8909
:1054A0007B689A810E4B5A897B685A810C4B1A890A
:1054B0007B681A810A4BDA887B68DA80084B9A8805
:1054C0007B689A80064B5A887B685A80044B1A88FE
:1054D0007B681A8000BF0C37BD4680BC704700BF98
:1054E000D470002080B58AB000AF7860002387F8C0
:1054F00027307B681B889BB240F6340293428CBFF6
:1055000001230023DAB27B681B889BB240F2D97179
:105510008B4294BF01230023DBB21343DBB21A4654
:105520007B685B889BB2002B0CBF01230023DBB29E
:1055300013437A68528892B20C2A8CBF012200224F
:10554000D2B213437A68928892B2002A0CBF012229
:105550000022D2B213437A68928892B21F2A8CBF7B
:1055600001220022D2B213437A68128992B2172A1A
:105570008CBF01220022D2B213437A68528992B2C0
:105580003B2A8CBF01220022D2B213437A6892894F
:1055900092B23B2A8CBF01220022D2B21343002BCD
:1055A00040F0858007F114031846434B9847FB8B66
:1055B0001A467B685B899BB2D31A002BB8BF5B424B
:1055C0000A2B17DCBA8B7B681B899BB29A4211D1DC
:1055D0003A8B7B689B889BB29A420BD1FA8A7B6894
:1055E0005B889BB29A4205D1BA8A7B681B889BB2C2
:1055F0009A4205D0314B01221A60314B01221A60C8
:105600007B689B899BB218462E4B984703463B7399
:105610007B685B899BB218462A4B984703467B738D
:105620007B681B899BB21846264B98470346BB7381
:105630007B68DB889BB21846224B98470346FB7376
:105640007B689B889BB218461E4B984703463B7469
:105650007B685B889BB218461A4B984703467B745D
:105660007B681B889BB2A3F5FA631846154B9847D5
:105670000346BB7408E097F82730013387F82730DA
:1056800097F827300A2B0DD807F10C0307220021C9
:1056900018460D4B9847034683F00103DBB2002BFD
:1056A000E9D100E000BF094B01221A6000E000BF11
:1056B0002837BD4680BD00BF8D540008BB72002056
:1056C000BD720020F14F0008B5600008BC720020D8
:1056D00080B584B000AF786078687D4B984703460A
:1056E0009AB27B68DA800023FB607B685B889BB2A0
:1056F000032B06D97B685B889BB2092B01D8012359
:10570000FB607B685B889BB2032B10D17B689B8816
:105710009BB2182B0BD97B68DB889BB2072B06D179
:105720007B681B899BB2012B01D90123FB607B683D
:105730005B889BB2032B17D17B689B889BB2182B8D
:1057400012D97B68DB889BB2072B0DD07B68DB8886
:105750009BB2C3F107027B689B889BB2C3F11F0316
:105760009A4201DD0123FB607B685B889BB20A2BB8
:105770001CD17B689B889BB2182B15D97B689B88B2
:105780009BB2182B12D97B68DB889BB2072B0DD0FC
:105790007B68DB889BB2C3F107027B689B889BB266
:1057A000C3F11F039A4201DC0123FB607B685B8825
:1057B0009BB20A2B10D17B689B889BB2182B0BD90C
:1057C0007B68DB889BB2072B06D17B681B899BB269
:1057D000002B01D10123FB607B68DB899AB23D4B32
:1057E000DA817B689B899AB23A4B9A817B685B89A4
:1057F0009AB2384B5A81FB68012B14D17B681B8904
:105800009BB2002B03D1334B17221A8110E07B6827
:105810001B899AB2FB689BB2D31A9AB22D4B1A819C
:105820000023FB6004E07B681B899AB2294B1A8134
:10583000FB68012B12D17B68DB889BB2012B03D163
:10584000244B0722DA800EE07B68DB889AB2FB6883
:105850009BB2D31A9AB21F4BDA8004E07B68DB88D4
:105860009AB21C4BDA80FB68012B1AD17B689B88AB
:105870009BB2012B09D17B685B889BB2023B164A25
:10588000D35C9AB2134B9A8010E07B689B889AB2E3
:10589000FB689BB2D31A9AB20E4B9A800023FB602E
:1058A00004E07B689B889AB20A4B9A807B685B888D
:1058B0009AB2FB689BB2D31A9AB2064B5A807B68A5
:1058C0001B889AB2034B1A8000BF1037BD4680BDBB
:1058D000394F0008D47000204C01002080B483B000
:1058E00000AF786039607B68164A82FB0312511161
:1058F000DA178A1A642101FB02F29B1A7B607B682B
:10590000114A82FB03129210DB17D31ADBB2303339
:10591000DAB23B681A707A680B4B83FB021399105A
:10592000D317C91A0B469B000B445B00D11ACAB2AD
:105930003B6801333032D2B21A7000BF0C37BD461B
:1059400080BC70471F85EB516766666680B58CB07A
:1059500000AF78607B6830221A707B680133312297
:105960001A7007F10C031846414B9847BB891A4639
:1059700007F12C03194610463E4B98477B680233CB
:1059800097F82C201A707B68033397F82D201A7033
:10599000FB891A4607F12C0319461046354B9847E8
:1059A0007B68043397F82C201A707B68053397F8CE
:1059B0002D201A703B8A1A4607F12C03194610460F
:1059C0002C4B98477B68063397F82C201A707B681D
:1059D000073397F82D201A70BB8A1A4607F12C035B
:1059E00019461046234B98477B68083397F82C20BC
:1059F0001A707B68093397F82D201A70FB8A1A46B3
:105A000007F12C03194610461A4B98477B680A3356
:105A100097F82C201A707B680B3397F82D201A709A
:105A20003B8B1A4607F12C0319461046114B984739
:105A30007B680C3397F82C201A707B680D3397F82D
:105A40002D201A707B8B1A4607F12C03194610463D
:105A5000084B98477B680E3397F82C201A707B68A8
:105A60000F3397F82D201A7000BF3037BD4680BD28
:105A70008D540008DD58000880B588B000AF78600C
:105A80000023BB777B6801331B78312B03D1454B57
:105A900001221A7002E0434B00221A707B689B7847
:105AA0003B777B68DB787B7707F11C0318463E4B1E
:105AB000984703469BB2BB817B681B793B777B6829
:105AC0005B797B7707F11C031846374B98470346F1
:105AD0009BB2FB817B689B793B777B68DB797B772B
